:020000040800F2
:10000000500D002089010008CB340008253100087C
:10001000C9340008AF04000843470008000000008E
:100020000000000000000000000000009F390008F0
:10003000E9050008000000009D390008BD3B0008EC
:10004000A3010008A3010008A3010008A301000800
:10005000A3010008A3010008A3010008A3010008F0
:10006000A3010008A3010008A3010008A3010008E0
:10007000AD050008B9050008C5050008D105000850
:10008000DD050008A3010008A3010008A14600083F
:10009000BD460008B1040008BD040008A301000823
:1000A000413C0008653C0008593C00084D3C0008F4
:1000B000713C00087D3C0008A3010008A301000872
:1000C000A3010008A3010008A3010008A301000880
:1000D000A30100087D410008A30100088941000830
:1000E000A3010008A3010008A301000800F002F822
:1000F00000F03AF80AA090E8000C82448344AAF188
:100100000107DA4501D100F02FF8AFF2090EBAE885
:100110000F0013F0010F18BFFB1A43F0010318473B
:10012000F4590000145A0000103A24BF78C878C16E
:10013000FAD8520724BF30C830C144BF04680C60ED
:10014000704700000023002400250026103A28BF35
:1001500078C1FBD8520728BF30C148BF0B60704739
:100160001FB51FBD10B510BD00F08AF81146FFF78E
:10017000F7FF04F00DFB00F0A8F803B4FFF7F2FF5F
:1001800003BC00F0AFF80000094880470948004769
:10019000FEE7FEE7FEE7FEE7FEE7FEE7FEE7FEE737
:1001A000FEE7FEE704480549054A064B7047000094
:1001B0003D3C0008ED00000850070020500D0020D5
:1001C000500900205009002010B5203AC0F00B80E3
:1001D000B1E81850203AA0E81850B1E81850A0E84B
:1001E0001850BFF4F5AF5FEA027C24BFB1E81850A5
:1001F000A0E8185044BF18C918C0BDE810405FEA15
:10020000827C24BF51F8043B40F8043B08BF704790
:10021000D20728BF31F8023B48BF11F8012B28BF95
:1002200020F8023B48BF00F8012B70474FF0000256
:1002300000B5134694469646203922BFA0E80C50DC
:10024000A0E80C50B1F12001BFF4F7AF090728BFB7
:10025000A0E80C5048BF0CC05DF804EB890028BF33
:1002600040F8042B08BF704748BF20F8022B11F05C
:10027000804F18BF00F8012B7047704770477047D8
:10028000754600F02BF8AE4605006946534620F04F
:100290000700854618B020B5FFF784FFBDE8204071
:1002A0004FF000064FF000074FF000084FF0000B32
:1002B00021F00701AC46ACE8C009ACE8C009ACE8E5
:1002C000C009ACE8C0098D46704710B50446AFF3CD
:1002D00000802046BDE81040FFF74FBF0048704740
:1002E000EC06002001491820ABBEFEE72600020004
:1002F0007047000070B5044600688168C943C907AB
:1003000017D1816821F00101816001F053F80546A1
:100310000AE000BF01F04EF8401B022804D9206813
:100320008068C043C00706D020688068C043C0070B
:10033000F0D0002070BDA06A40F01000A062E06A1A
:1003400040F00100E062012070BD0000F8B5002619
:100350000446009600688168C943C9072DD08168AA
:1003600041F001018160164816490068B0FBF1F0C8
:1003700000E0401E00900028FBD101F01BF805466C
:1003800016E000BF01F016F8401B022810D92068C3
:100390008068C043C0070BD0A06A40F01000A06284
:1003A000E06A40F00100E06284F824600120F8BDBA
:1003B00020688068C043C007E4D10020F8BD000079
:1003C0003000002040420F000FB4282200B58FB04B
:1003D00010A96846FFF7F8FE1A980A901B980B9030
:1003E00006200C9001200D9003200E900CA9684669
:1003F00000F0FEF8002801D000F0F7F80FB05DF82B
:1004000014FB0FB4282200B58FB010A96846FFF77F
:10041000DBFE1A980A901B980B9003200121CDE96E
:100420000C010E900CA9684600F0E2F8002801D0FB
:1004300000F0DBF80FB05DF814FB0FB4282200B514
:100440008FB010A96846FFF7BFFE1A980A901B9854
:100450000B9005200C9001200D9003200E900CA90C
:10046000684600F0C5F8002801D000F0BEF80FB0D3
:100470005DF814FB0FB4282200B58FB010A96846B0
:10048000FFF7A2FE1A980A901B980B9009200C9077
:1004900001200D9003200E900CA9684600F0A8F8EA
:1004A000002801D000F0A1F80FB05DF814FBFEE7C2
:1004B000014800F004BB000068000020014800F083
:1004C000FEBA0000680000200FB43D22F0B593B0E2
:1004D000054619A968462C9CFFF776FE9DF8A100F9
:1004E0008DF83D009DF8A2008DF83E009DF8A30018
:1004F0008DF83F009DF8A4008DF840009DF8A50000
:100500008DF841009DF8A6008DF842009DF8A700E7
:100510008DF843009DF8A8008DF844009DF8A900CF
:100520008DF845009DF8AA008DF846001D4805EBA2
:100530004502DFF874C010F8121000EB4200467854
:10054000C378B7028578027947EA0127407947EAFC
:10055000831747EA051747EA80071743CCF800706E
:1005600094FBF4F74F43C7EB074106FB04110E4E13
:100570001436316094FBF4F16943C1EB014103FB94
:100580000411094B1C33196094FBF4F15143C1EB86
:10059000014100FB0410191F086013B0F0BC5DF8A6
:1005A00014FB0000E45A0008202C0140014800F030
:1005B00015BD000088050020014800F00FBD0000B7
:1005C000CC050020014800F009BD0000980600207D
:1005D000014800F003BD000054060020014800F06F
:1005E000FDBC000010060020704772B6FEE7000058
:1005F000F8B50024009490F824202546012A12D052
:10060000012280F824204A681F23072A0DD2066899
:10061000776B521E02EB820293409F430B6893401C
:100620001F43776319E00220F8BD06680D2A0AD23D
:10063000376BD21F02EB820293409F430B689340BB
:100640001F43376309E0F76A0D3A02EB82029340D9
:100650009F430B6893401F43F7620A6807230668AD
:100660000A2A0AD3F7680A3A02EB420293409F43F0
:100670008B6893401F43F76008E0376902EB420242
:1006800093409F438B6893401F4337610A68102A49
:1006900001D0112A20D1124B02689A4217D19368D7
:1006A0001B0219D4936843F400039360096810296E
:1006B00012D10C490C4A0968B1FBF2F101EB81013E
:1006C000490000E0491E00910029FBD104E0816A45
:1006D00041F020018162012480F824502046F8BDB9
:1006E000002401403000002040420F000068C06C30
:1006F000704700002DE9F0414FF0000704003D462F
:100700007ED0A06A002628B9E66284F824602046DC
:1007100000F07EF82046FFF7EDFDA16AC90600D47F
:1007200020B1A06A40F01000A06269E0A16A21F443
:10073000885141F00201A1626268E169237B0A43AA
:1007400047EA43010A43A1684FF48077B94209D0D0
:10075000012907D05FF0000194F814C0BCF1010F2B
:1007600002D00AE03946F7E7F3B1A36A43F0200369
:10077000A362E36A43F00103E3622368D3F804C091
:100780002CF4694C4CEA010CC3F804C021688B6856
:10079000DFF870C003EA0C0313438B60A168B94211
:1007A0000BD0012909D00CE0DFF85CC0A3690CEB89
:1007B00043330B4343F40061DFE7218A0D05A5F5C0
:1007C00080152168CB6A23F470032B43CB62216828
:1007D00089680E4B1940914208D1E662A16A21F066
:1007E000020141F00101A162BDE8F081A06A20F0A0
:1007F000020040F01000A062E06A40F00100E062F8
:100800000120F1E7FDF7E1FF00E0FFFFFE0E1FFF13
:1008100010B586B00021009101910291039100680A
:100820001649884227D11648816941F400718161D7
:10083000816901F400710491816941F004018161D1
:10084000816901F004010491816941F0080181612D
:100850008069032400F0080004906820CDE90004BA
:100860006946084800F0A4FC0220CDE9000469466E
:10087000054800F09DFC06B010BD000000240140BA
:100880000010024000080140000C01402DE9F8432F
:1008900000270D460446009700F08CFD8046206836
:1008A0008168C90508D5A06A40F02000A06284F8DC
:1008B00024700120BDE8F8834168C90503D4C06AEB
:1008C00010F4700F2AD0022001F06CF93B4909683E
:1008D000B1FBF0F62068036939490B424FEA610128
:1008E0004FEAA1121FD1C3684FEA611C13EA0C0F33
:1008F00019D103690B4225D1C068104222D11420BE
:1009000023E0681C0AD02DB100F054FDA0EB0800D4
:10091000A84203D920680068800725D520680068B0
:100920008007EED52DE003690B4202D1C168114268
:1009300006D0026923490A4206D1C068084203D1A1
:10094000542002E0292000E0FC204643009816E0F5
:10095000681C11D02DB100F02DFDA0EB0800A842BD
:100960000AD90098B04207D2A06A40F00400A06201
:1009700084F8247003209DE70098401C0090B0424A
:10098000E6D321686FF012000860A06A40F400709E
:10099000A06220688068C0F3424007280CD1207B09
:1009A00050B9A06A20F48070A062A06AC00403D489
:1009B000A06A40F00100A06200207BE73000002028
:1009C000244992244992240070B5044690F82400EA
:1009D00001280DD0012084F824002046FFF7B6FC42
:1009E00002004FF0000005D084F82400104670BDCE
:1009F000022070BDA16A40F20123994341F4807145
:100A0000A1621F4D23681F49AB4218D10E6816F42E
:100A1000702F14D0A66A46F48016A6620E6876057A
:100A200005D5A66A26F4005646F48056A662A66A44
:100A3000F6040AD5E66A26F00606E66206E0A66A2D
:100A400026F48016A6625E68E9E7E06284F8240076
:100A50006FF00200186020688368C3F34243072BDD
:100A600005D1A84208D1096811F4702F04D081681B
:100A700041F480118160B9E7816841F4A001F9E790
:100A8000002801400424014010B5044690F82400D9
:100A9000012807D0012084F824002046FFF72AFC13
:100AA00010B107E0022010BDA16A21F4885141F085
:100AB0000101A162002184F8241010BD70472DE9C6
:100AC000F05F0546006800244669D0F80490876806
:100AD000D0F80CB0D0F810A0D0F81880F10748D0AA
:100AE000F90714D001218160B80703D5284600F02A
:100AF000D9F90CE0780702D54FF4006407E0380715
:100B000002D54FF4805402E0284600F0CAF9F805F7
:100B100016D529684FF480708860B80503D528463B
:100B200000F0C2F90CE0780502D544F4005407E067
:100B3000380502D544F4804402E0284600F0B3F9B9
:100B4000F80316D529684FF480308860B80303D5C0
:100B5000284600F0ABF90CE0780302D544F40044D9
:100B600007E0380302D544F4803402E0284600F060
:100B70009CF9300707D55FEACB6004D529681020BF
:100B800044F40074C86070074FF0080707D55FEAA7
:100B90000B7004D52868C760284600F07DF9B007BF
:100BA00006D52868C068800702D0284600F075F98D
:100BB000700607D55FEACA6004D52968102044F49E
:100BC00080640861B00607D55FEA0A7004D528681A
:100BD0000761284600F062F9F00606D5286800692A
:100BE000800702D0284600F05AF9B00308D55FEA22
:100BF000C96005D5296810204860284600F050F9E2
:100C0000F00307D55FEA097004D5286847602846D5
:100C100000F04DF9300446D55FEA497040D5F00543
:100C200004D55FEAC87001D044F00104B00504D5D2
:100C30005FEA887001D544F00204700504D55FEACC
:100C4000487001D544F00404300529D518F0700F20
:100C500026D008F07000402815D006DC102809D0F6
:100C600020280AD0302816D10AE050280ED060285B
:100C700011D10EE044F008040DE044F010040AE045
:100C800044F0200407E044F0400404E044F0800411
:100C900001E044F480742868816921F07001816169
:100CA000296804204860002C05D0686A20436862E7
:100CB0002846FFF703FFBDE8F09F70B5040003D09E
:100CC00094F8200010B104E0012070BD204600F02F
:100CD00081F82068016841F00101016000F06AFBC1
:100CE0000546052604E000F065FB401B0A2811D8E4
:100CF00020684068C007F6D02068016821F0020132
:100D0000016000F057FB05460BE000F053FB401B71
:100D10000A2806D9606A40F40030606284F82060D6
:100D2000D2E7206840688007EFD4207E0128206841
:100D300001683DD021F080010160607E01282068BB
:100D4000016838D021F040010160A07E01282068B0
:100D5000016833D021F020010160E07E0128206885
:100D600001682ED041F010010160207F0128206829
:100D7000016829D021F008010160607F0128206806
:100D8000016824D021F004010160D4E90201084384
:100D9000D4E90412114308436168491E08432168DD
:100DA000C86100206062012084F82000002070BD2E
:100DB00041F08001C0E741F04001C5E741F020016A
:100DC000CAE721F01001CFE741F00801D4E741F074
:100DD0000401D9E710B586B000210091019102917C
:100DE00003910068284988424BD12848C16941F0E5
:100DF0000071C161C16901F000710491816941F024
:100E0000080181618069224C00F0080004904FF4D1
:100E1000807000906946204600F0CAF96015009085
:100E200002200190032003906946204600F0C0F99B
:100E30001848416821F4C04141F0E06141F480412B
:100E4000416000221146132000F020FB132000F027
:100E50000FFB00221146142000F018FB142000F0B4
:100E600007FB00221146152000F010FB152000F0B2
:100E7000FFFA00221146162000F008FB162000F0B1
:100E8000F7FA06B010BD00000064004000100240F8
:100E9000000C0140000001407047704770477047E8
:100EA000704770477047704770477047704770478A
:100EB00010B5040002D0607910B106E0012010BD29
:100EC00000202071204600F005F80120607100200C
:100ED00010BD000008B500680649884208D10648E0
:100EE000416941F040014161406900F040000090DB
:100EF00008BD0000003002400010024010B590F81C
:100F000021100022022905D00421816380F82020CD
:100F1000012010BD01680B6823F00E030B6001680F
:100F20000B6823F001030B6090F84030C46B012183
:100F300001FA03F3636080F8211080F82020104646
:100F400010BD000010B590F821100024022903D034
:100F50000421816301243DE001680A6822F00E0249
:100F60000A6001680A6822F001020A601A4A0168F0
:100F7000914201D1012121E0174A1432914201D15D
:100F800010211BE0144A2832914201D1891515E045
:100F9000114A3C32914201D189140FE00E4A50327D
:100FA000914202D14FF4803108E00B4A6432914201
:100FB00002D14FF4801101E04FF08071064A083AE7
:100FC0005160012180F82110002180F82010416B30
:100FD00001B18847204610BD080002402DE9F05FAE
:100FE000C16B0C6801680B68D0F840C0042202FA9B
:100FF0000CF2494DDFF824A1494E4A4FDFF828B1E1
:10100000DFF828E122422CD05A072AD50A68920636
:1010100003D40A6822F004020A600168A94201D1DF
:10102000042219E0514501D1402215E0B14202D11C
:101030004FF4806210E0B94202D14FF480420BE0DD
:10104000594502D14FF4802206E0714502D14FF498
:10105000800201E04FF080622F4908394A60C16A7E
:101060003BE04FF0020808FA0CF818EA040F4FF0C2
:1010700000094FF0010235D05FEA837832D50B6862
:101080009B0605D40B6823F00A030B6080F821202F
:101090000168A94201D1022219E0514501D1202263
:1010A00015E0B14202D14FF4007210E0B94202D112
:1010B0004FF400520BE0594502D14FF4003206E0E4
:1010C000714502D14FF4001201E04FF00072124955
:1010D00008394A6080F82090816A00291AD0BDE85A
:1010E000F05F0847082505FA0CF5254212D01B07CA
:1010F00010D50B6823F00E030B6090F84010C36B03
:1011000002FA01F15960826380F8212080F8209072
:10111000016BE2E7BDE8F09F080002401C000240BE
:101120003000024044000240580002406C0002407F
:1011300030B528B308C8134914221944B1FBF2F1A1
:101140008900C16310498163022141771A6843F61F
:10115000F0718A43D0E900142143D0E902452C43C1
:101160002143046921434469214384692143114394
:10117000196000214163012242770177084630BDA2
:10118000012030BDF8FFFDBF0000024070B50446ED
:1011900000F010F90546601C02D0044800780444B1
:1011A00000F008F9401BA042FAD370BD24000020D3
:1011B0002DE9F84FDFF8B8910024A9F1040B23467C
:1011C0000F2709F1040AABF1040EC9E00125A5407F
:1011D0002A40AA427DD1674ED1F804C0ACEB060884
:1011E000B44532D014DCBCF1030F3AD009DCBCF1B9
:1011F000000F2AD0BCF1010F1CD0BCF1020F31D17D
:101200001DE0BCF1110F17D0BCF1120F2AD119E06B
:10121000B8F5881F19D006DCB8F5803F15D0B8F5B1
:10122000801F1FD111E0B8F5001F0ED0B8F5041FC4
:1012300018D10AE0CB6815E0CB681B1D12E0CB6823
:1012400008330FE0CB680C330CE08B682BB1012B1B
:101250004FF0080303D0456104E0042302E0056178
:1012600000E00023FF2A01D8064601E000F1040651
:101270004FEA840501D9A5F12005D6F8008007FAC8
:1012800005FC28EA0C0803FA05F548EA0508C6F843
:1012900000804D68ED0062D5374DAE6946F001061D
:1012A000AE61AD6924F0030605F001050095334DEC
:1012B00006EB050CDCF80850A607360F07FA06F80F
:1012C00025EA0805DFF8B880404503D14FF0000853
:1012D00017E044E0DFF8AC80404502D14FF0010850
:1012E0000FE0DFF8A480404502D14FF0020808E08B
:1012F000DFF89880404502D14FF0030801E04FF03D
:10130000040808FA06F848EA0508CCF808804D6891
:10131000D9F80060ED024D4601D5164300E0964332
:101320002E604D68DAF80060AD02554601D51643CF
:1013300000E096432E604D68DBF80060AD035D462B
:1013400001D5164300E096432E604D68DEF800603C
:10135000ED03754601D5164300E096432E60641CEC
:101360000D682A46E5407FF431AFBDE8F88F0000F4
:10137000080401400000111000100240000001406C
:1013800000080140000C0140001001400014014021
:101390008068084000D001207047C26821EA02033B
:1013A0000A4043EA0241016170470AB10161704796
:1013B0000904FBE701488068704700002400002012
:1013C000024881680278114481607047240000203F
:1013D000074810B5016841F010010160032000F0DA
:1013E00075F80F2000F006F800F024F8002010BD7A
:1013F0000020024070B50D4D04464FF47A712878F4
:10140000B1FBF0F00A490968B1FBF0F000F0FEFE14
:1014100048B9102C07D200222146501E00F036F8A1
:1014200000206C6070BD012070BD00002400002011
:10143000300000200C4808B5816941F0010181614C
:10144000816901F001010091C16941F08051C161E0
:10145000C06900F0805000900448416821F0E061CC
:1014600041F00071416008BD0010024000000140E1
:10147000002809DB00F01F02012191404009800093
:1014800000F1E020C0F8001170470000F0B40E4BEE
:101490001B680C46C3F30223C3F10705042D00D9D2
:1014A0000425191D072901D2002300E0DB1E0126B7
:1014B00006FA05F1491E214099409E40761E1640CD
:1014C0003143F0BC03F03EB90CED00E0064900F0FA
:1014D000070208684FF6FF03184040EA0220034A5B
:1014E00010430860704700000CED00E00000FA05B2
:1014F000704770472DE9F05F04685FEA424C0B7853
:101500008D69B4F850C04FF000064BF68F7948F261
:10151000800A48F68F7B48F2C00E4FF480672AD5C8
:101520004FF0020808EBC308C44407EB4C07E45B28
:10153000C4F30904A54203D32D1B8D6101D00BE038
:101540008E61066836F8235005EA090585F40055D2
:1015500045EA0A0526F82350520609D50D78036896
:1015600033F8252002EA0B0242EA0E0223F8252076
:1015700084B30A8929E04FF0060808EBC308C44485
:1015800007EB4C07E45BC4F30904A54203D32D1B0E
:101590008D6101D00BE08E61066836F8235005EAB4
:1015A000090585F4005545EA0A0526F82350520638
:1015B00009D40B78056835F8232002EA0B0242EAC9
:1015C0000E0225F823202CB14A8949690068234678
:1015D00003F086F82046BDE8F09F2DE9F05F054650
:1015E00000680C465FEA426C16468B692278B0F8B8
:1015F00050C048F68F774CF280094FF4004B4FF6FD
:10160000FF7E4FF4806A4FF0000172D54FF0020860
:1016100008EBC208E0440AEB480C30F80C00C0F3B9
:101620000900834211D91B1AA3610FD0730407D597
:101630002E6836F822303B4043EA090326F8223070
:1016400094F82420012A47D052E1A161607810B1BA
:10165000012813D01AE02868B0F85030184400EB85
:101660000210B0F80424C2F30902A0F80424B0F870
:10167000042442F40042A0F8042407E02868B0F8EB
:101680005030184400EB0210A0F804146278286867
:1016900012B1012A11D018E0B0F850100844217896
:1016A00000EB0110B0F80C14C1F30901A0F80C1400
:1016B000B0F80C1441F4004105E0B0F8502010449B
:1016C000227800EB0210A0F80C1421782846FFF7CE
:1016D0000FFF700472D40BE1626902446261E26937
:1016E0000244E2612369226A9A4203D31846111A1E
:1016F00004E03EE084F824100AB1104621626178CB
:1017000011B1012929D031E02968B1F850201144E4
:10171000227801EB0211B1F80424C2F30902A1F806
:10172000042401F204413E2807D94209C30600D12E
:10173000521E0B884BEA822207E048B14208C307D9
:1017400000D0521C0B880EEA822213430B800DE05E
:101750000A8842F400420A8008E02968B1F8502063
:101760001144227801EB0211A1F8040483B222890A
:10177000BAE04FF0060808EBC208E0440AEB480C58
:1017800030F80C00C0F30900834211D31B1AA36187
:101790000FD0730407D42E6836F822303B4043EA5A
:1017A000090326F8223094F82420012A51D09FE022
:1017B000A161607818B1012814D01BE03FE02868CF
:1017C000B0F85030184400EB0210B0F80424C2F313
:1017D0000902A0F80424B0F8042442F40042A0F85E
:1017E000042407E02868B0F85030184400EB0210D9
:1017F000A0F804146278286812B1012A11D018E008
:10180000B0F850100844217800EB0110B0F80C1427
:10181000C1F30901A0F80C14B0F80C1441F4004114
:1018200005E0B0F850201044227800EB0210A0F838
:101830000C1421782846FFF75BFE700458D42278F8
:10184000296831F82200384040EA090021F82200D6
:101850004EE0626902446261E2690244E261236926
:10186000226A9A4203D31846111A216204E00AB18F
:101870001046216284F824106278296812B1012A86
:1018800028D02FE0B1F850201144227801EB02114A
:10189000B1F80C24C2F30902A1F80C2401F20C41A6
:1018A0003E2807D94209C30600D1521E0B884BEAD5
:1018B000822207E048B14208C30700D0521C0B88BF
:1018C0000EEA822213430B800CE00A8842F40042A5
:1018D0000A8007E0B1F850201144227801EB021190
:1018E000A1F80C04628983B26169286802F016FFCE
:1018F0002278296831F8220048F6BF73184080F03A
:10190000300048F28003184321F822000020BDE88F
:10191000F09F00001FB50446006802F0DDFE0104E0
:1019200003D5204601F0D2FD1FBD41050DD520682D
:1019300030F8441F21F480610180204600F018F93E
:101940000021204600F017F91FBD410405D520688D
:1019500030F8441F21F4804174E0810405D52068EB
:1019600030F8441F21F400516CE0C10414D5206804
:1019700030F8401F21F004010180206830F8401F3A
:1019800021F008010180204600F0F3F8206830F8CB
:10199000441F21F4805155E0010540D5D4F80020C2
:1019A0000020694632F8203021F81030401CC0B2C7
:1019B0000828F7D332F8400F40F00100108020686B
:1019C00030F8402F22F0010202802068B0F8442055
:1019D0005205FBD530F8442F22F4806202800020AB
:1019E000236831F8102023F82020401CC0B20828BA
:1019F000F6D3206830F8401F41F0080101802068CC
:101A000030F8441F21F400610180206830F8401F45
:101A100041F004010180204600F0C2F81FBD81059D
:101A200009D5206830F8441F21F400710180204658
:101A300000F0A0F81FBDC005FCD5206830F8441F99
:101A400021F4807101801FBD2DE9F04186B00400B2
:101A500004D094F8A902002520B108E0012006B0C6
:101A6000BDE8F08184F8A852204600F05BF803201E
:101A700084F8A902206802F09AFB04F110011422F4
:101A800088466846FEF7A0FB94E80F0002F082FB50
:101A90000227D0BB0021206802F038FE002001267A
:101AA0000EE000BF00EB800104EBC10181F829606A
:101AB00001F8280F401CCD700D614D61C0B28D61E1
:101AC00061688142EED8002012E000BF00EB800187
:101AD00004EBC10181F8695181F8680181F86B510B
:101AE000C1F87851C1F87C51401CC0B2C1F8805196
:101AF00061688142EAD8142241466846FEF764FBD9
:101B000094E80F0002F04AFB10B184F8A972A5E72F
:101B100084F8245084F8A962206802F03DFB00207C
:101B20009DE7000008B500680F4988421AD10F48A8
:101B3000C16941F40001C161C069002200F40000E4
:101B4000009011461320FFF7A1FC1320FFF790FC33
:101B5000002211461420FFF799FCBDE8084014202C
:101B6000FFF786BC08BD0000005C0040001002408A
:101B700070477047704710B5044690F8A8020128D6
:101B80000BD0012084F8A80284F82410206802F009
:101B9000BFFD002084F8A80210BD022010BD7047D0
:101BA0007047000010B501460020234C012922D0C7
:101BB000022939D010291DD161682268D20119D5B6
:101BC0001E48C1F38342C903805C0AD561681B4A81
:101BD000C1F34041921E515C194AB2FBF1F14843F6
:101BE00001E0184948436168490203D440000321D9
:101BF000B0FBF1F010BD226AC2F30121012903D12B
:101C0000920701D5C80310BD022905D1626A920767
:101C100002D549F6404010BD0329FCD12168890353
:101C2000F9D54FF2244010BD00F02AF96168C1F3E4
:101C30008131491C4900DBE700100240BC5A000812
:101C400000127A0000093D002DE9F84305460078AE
:101C5000354CC00754D0E0690026C00008D4E069C4
:101C600040F08050E061E069012600F08050009073
:101C70002E480168C90512D40168804641F480717C
:101C80000160FFF797FB074605E000BFFFF792FBF7
:101C9000C01B642823D8D8F80000C005F6D5206AF8
:101CA00010F4407021D0A98801F4407181421CD009
:101CB000206A1F49012220F440700A6000220A6055
:101CC0002062C00711D0FFF775FB074641F2883844
:101CD00008E000BFFFF76EFBC11B414502D903209E
:101CE000BDE8F883206A8007F4D5206A696820F48B
:101CF0004070084320621EB1E06920F08050E0612E
:101D00002878800705D56068A96820F4404008431A
:101D100060602878C00605D56068E96820F4800016
:101D2000084360600020DBE70010024000700040C4
:101D3000400442422DE9F0470F46050061D0434E72
:101D4000306800F00700B84209D2306820F0070080
:101D500038433060306800F00700B84251D128683D
:101D60003B4C810712D5400703D5606840F4E06022
:101D700060602878000703D5606840F460506060B8
:101D80006068A96820F0F000084360602878C00708
:101D900028D06868012810D02168022810D089074F
:101DA00000292EDA616821F0030101436160FFF729
:101DB00001FB804641F288390DE021688903EFE795
:101DC0008901EDE7FFF7F6FAA0EB0801494502D9D2
:101DD0000320BDE8F0876068696800F00C00B0EB94
:101DE000810FEFD1306800F00700B8420BD930689E
:101DF00020F0070038433060306800F00700B84238
:101E000001D00120E5E72878400705D56068E9683A
:101E100020F4E060084360602878000706D5606819
:101E2000296920F4605040EAC100606000F038F891
:101E30006168084AC1F30311515CC8400649086053
:101E400006480068FFF7D6FA0020C2E700200240EB
:101E500000100240CC5A000830000020280000206A
:101E60000448054900684968044AC1F30221515CED
:101E7000C84070473000002000100240DC5A0008C3
:101E80000448054900684968044AC1F3C221515C0D
:101E9000C84070473000002000100240DC5A0008A3
:101EA0000E4A51680E4801F00C03042B11D0082B88
:101EB0000FD10C48C1F38343C903C05C0AD55168F4
:101EC000084AC1F34041921E515C054A5043B0FBA1
:101ED000F1F0704704494843704700000010024089
:101EE00000127A00AA5A000800093D002DE9F84FB7
:101EF000040070D02078C04DC00749D06868C0F396
:101F00008100012807D06868C0F38100022809D148
:101F10006868C00306D52868800339D56068002842
:101F2000E7D035E06068B0F5803F0BD010B1B0F578
:101F3000A02F11D0286820F480302860286820F471
:101F4000802002E0286840F480302860606890B10A
:101F5000FFF730FA06460AE0286840F4802028603F
:101F6000F0E700BFFFF726FA801B642873D82868C3
:101F70008003F7D50CE0FFF71DFA064605E000BF29
:101F8000FFF718FA801B6428F0D828688003F7D47C
:101F900020789A4E80074FF001094FF0000839D59C
:101FA000686810F00C0F07D06868C0F38100022841
:101FB00009D16868C00306D42868800714D5206951
:101FC000012808D110E02069B0B1C6F80090FFF7F1
:101FD000F1F9074605E00AE1FFF7ECF9C01B02281A
:101FE000C4D828688007F7D52868616920F0F80010
:101FF00040EAC10028600DE0C6F80080FFF7DAF97A
:10200000074604E0FFF7D6F9C01B022823D828684A
:102010008007F7D4207800072CD57948A169D9B179
:10202000C0F80090FFF7C6F9074604E0FFF7C2F9D1
:10203000C01B02280FD8686A8007F7D571484FF493
:10204000FA510068B0FBF1F0009000BF0098411E0B
:102050000091FAD20EE080E0C0F80080FFF7AAF904
:10206000074604E0FFF7A6F9C01B022875D8686A86
:102070008007F7D42078400760D5E8690027C000C2
:1020800008D4E86940F08050E861E869012700F071
:10209000805000905C480168C90513D401688346EC
:1020A00041F480710160FFF785F9824606E000BFC8
:1020B000FFF780F9A0EB0A0064284ED8DBF8000097
:1020C000C005F5D5E06801280AD008B1052813D06D
:1020D000286A20F001002862286A20F0040002E04B
:1020E000286A40F001002862E06841F2883B98B11C
:1020F000FFF760F982460BE0286A40F0040028628E
:10210000EEE700BFFFF756F9A0EB0A0159455AD890
:10211000286A8007F6D50CE0FFF74CF9824605E007
:10212000FFF748F9A0EB0A0159454CD8286A800707
:10213000F6D41FB1E86920F08050E861E06988B307
:102140006968C1F38101022944D00228C6F8608081
:1021500004D0FFF72FF9044638E034E0FFF72AF9FE
:10216000074604E0FFF726F9C01B02282BD8286891
:102170008001F7D4206AB0F5803F05D16868A16876
:1021800020F4003008436860D4E908010843696816
:1021900021F4741108436860C6F86090FFF70AF9EB
:1021A000044606E025E000BFFFF704F9001B022803
:1021B00009D828688001F7D51BE000BFFFF7FAF8BF
:1021C000001B022802D90320BDE8F88F286880018F
:1021D000F4D40EE00128F7D06868226A00F4803158
:1021E000914204D1616A00F47010884201D001204C
:1021F000EAE70020E8E70000001002400000424249
:1022000080044242300000200070004010B5401EA3
:10221000B0F1807F01D3012010BD4FF0E024606158
:102220000F21601702F08EFA0020A06107202061C4
:10223000002010BD7047000070B501208107A4B0D8
:1022400048632B4D01462846FFF7A2F804460221B9
:102250002846FFF79DF8064604212846FFF798F820
:10226000800040EA46002043224C2349C0B220703F
:1022700051F82050A56060683D22401C60601F49F5
:1022800011A8FDF7A1FF1D4911F83D0F8DF8810040
:1022900048788DF8820088788DF88300C8788DF8AA
:1022A000840008798DF8850048798DF88600887952
:1022B0008DF88700C8798DF88800087A8DF8890034
:1022C000487A8DF88A00A1692069CDE90F013C2286
:1022D00014A96846FDF778FF284611AD95E80E0071
:1022E000FEF7F2F8E068401CE06024B070BD00002A
:1022F0000008014000000020885A000890000020DB
:1023000010B590F83C20012A22D0012280F83C2010
:10231000CA688C6822F4407222434C6822F48062BE
:1023200022430C6822F4006222430C6922F480529A
:1023300022434C6922F400522243C969002322F44B
:1023400080420A4301684A6480F83C30002010BD96
:10235000022010BD10B590F83C30012B0AD00123AB
:1023600080F83C3041B1102906D0202904D0302912
:1023700002D00AE0022010BD03689C6824F07004BB
:102380009C6003689C680C439C6001684B6843F048
:1023900001034B6001684B6823F004034B60016844
:1023A0004B6813434B600168CA6822F40052CA604C
:1023B0000168CA6842F02002CA60002180F83C101F
:1023C000084610BD70B588B00E46040004D094F8DD
:1023D0003D00002518B107E0012008B070BD84F869
:1023E0003C50204600F056F8022084F83D00211DA4
:1023F000206801F049FCB36831680322206801F0CD
:1024000093FD2068816921F00C0181612068816958
:102410007268114381612068416841F08001416028
:102420002068816821F0700181602068816841F036
:10243000400181602068816821F007018160206887
:10244000816841F00401816070200595049506952E
:10245000039502950090F06801906946206801F0AC
:1024600091FC2068416821F070014160206841685A
:1024700041F050014160012084F8460084F83E009C
:1024800084F83F0084F8420084F8430084F83D005B
:102490000020A2E77047000010B590F83E300446D7
:1024A00090F83F2090F8421090F84300012B05D19E
:1024B000012A03D1012901D1012801D0012010BD39
:1024C000022084F83E0084F83F0084F8420084F83B
:1024D00043002068C16841F00201C160012200216F
:1024E000206801F007FC0C492068884208D0B0F150
:1024F000804F05D00949884202D00949884204D159
:10250000816801F00701062903D0016841F001014B
:102510000160002010BD0000002C014000040040BC
:102520000008004070B590F83C20012A26D0012414
:1025300080F83C40022280F83D2003685A689D687C
:1025400022F070060A6832435A600D4B02689A42C4
:1025500008D0B2F1804F05D00A4B9A4202D00A4B04
:102560009A4204D1496825F080031943916080F8AC
:102570003D40002180F83C10084670BD022070BD2F
:10258000002C0140000400400008004010B5040089
:1025900003D094F83D0010B107E0012010BD0020E9
:1025A00084F83C00204600F01FF8022084F83D002B
:1025B000211D206801F068FB012084F8460084F8A2
:1025C0003E0084F83F0084F8400084F8410084F81D
:1025D000420084F8430084F8440084F8450084F8FD
:1025E0003D00002010BD00002DE9F04F85B0002512
:1025F0000646009501950295039500685B4A5C4983
:1026000090427CD1886940F400608861886900F458
:1026100000600490886940F008008861886900F0D3
:10262000080004908814009069465248FEF7C0FDE7
:10263000524C4FF4806A5048C4F814A02060102710
:10264000C4E901754FF44050C4E906504FF08009C9
:102650004FF48078C4E903982046FEF769FD08B17D
:10266000FDF7C3FF74626662454C4348BB46C4E94C
:1026700002591430C4E9000B47464FF44058C4E9EE
:102680000658C4E9047A2046FEF752FD08B1FDF76A
:10269000ACFFB462666238483A4C5030C4E9000B73
:1026A0004020C4E90209C4E90658C4E9047A204676
:1026B000FEF73EFD08B1FDF798FFF46200221146D7
:1026C00018206662FEF7E2FE1820FEF7D1FE002217
:1026D00011461920FEF7DAFE1920FEF7C9FE002286
:1026E00011461A20FEF7D2FE1A20FEF7C1FE002284
:1026F00011461B20FEF7CAFE1B2031E0FFE7B0F1B8
:10270000804F11D0204A90422CD1C86940F002007D
:10271000C861C869002200F00200049011461D2023
:10272000FEF7B4FE1D201BE0C86940F00100C8613F
:10273000C86900F001000490886940F004008861D5
:102740008869694600F004000490072000900F4853
:10275000FEF72EFD002211461C20FEF797FE1C20DE
:10276000FEF786FE05B0BDE8F08F0000002C0140AA
:1027700000100240000C01401C00024088050020AF
:10278000CC05002010060020000400400008014095
:1027900090F83D10012901D001207047022180F8F6
:1027A0003D100168CA6842F00102CA6000680B4926
:1027B000884208D0B0F1804F05D00949884202D044
:1027C0000849884204D1816801F00701062903D035
:1027D000016841F00101016000207047002C0140B8
:1027E000000400400008004001680A6A41F2111329
:1027F0001A4207D10A6A9B101A4203D10A6822F0D2
:1028000001020A60012180F83D100020704770B578
:10281000044690F83C000025012817D0012684F8D2
:102820003C60022084F83D002068826822F0770234
:1028300022F47F4282600868502838D00DDC2028BE
:102840004FD005DC90B3102811D14AE0022070BDB2
:10285000302846D040280AD13BE060282FD070288D
:102860000DD0B0F5805F03D0B0F5005F12D0012528
:1028700084F83D60002084F83C00284670BDCB6899
:10288000D1E90121206801F042FA2068816841F015
:10289000770109E0CB68D1E90121206801F037FA1E
:1028A0002068816841F480418160E1E719E0CA68ED
:1028B0004968206801F026FB5021206806E0CA68BC
:1028C0004968206801F05CFB6021206801F029FA6A
:1028D000CEE7CA684968206801F014FB40212068EF
:1028E000F4E7226801461046F0E7704770B50446E9
:1028F000006801694FF00005C943890715D4C16814
:10290000C943890711D4E91E01610120207720689D
:1029100080698007204602D0FFF7E7FF04E000F05F
:10292000F9F8204600F08BF9257720680169C94342
:10293000490717D4C168C943490713D46FF004018C
:102940000161022020772068806910F4407F2046D2
:1029500002D0FFF7CAFF04E000F0DCF8204600F0E8
:102960006EF9257720680169C943090716D4C16843
:10297000C943090712D46FF00801016104202077D0
:102980002068C0698007204602D0FFF7AEFF04E050
:1029900000F0C0F8204600F052F925772068016960
:1029A000C943C90617D4C168C943C90613D46FF017
:1029B00010010161082020772068C06910F4407F71
:1029C000204602D0FFF791FF04E000F0A3F8204674
:1029D00000F035F9257720680169C943C90708D196
:1029E000C168C943C90704D1891E0161204600F0AE
:1029F00027F920680169C943090609D4C168C94398
:102A0000090605D46FF0800101612046FFF712FC32
:102A100020680169C943490609D4C168C943490608
:102A200005D46FF040010161204600F06EF9206886
:102A30000169C94389060BD4C168C943890607D413
:102A40006FF0200101612046BDE87040FFF7F4BB44
:102A500070BD000070B586B0002100910191029117
:102A600003910068264A27490224274D274E9042A9
:102A700020D1886940F008008861886900F008006A
:102A80000490886940F0040088618869694600F014
:102A9000040004904FF46040CDE9000428460394FC
:102AA000FEF786FB4FF4E060CDE90004694630464E
:102AB000039420E0164A90421FD1886940F0040038
:102AC0008861886900F004000490886940F008007B
:102AD00088618869694600F0080004908020CDE98B
:102AE000000430460394FEF763FB0120CDE90004A7
:102AF000694628460394FEF75BFB06B070BD0000F4
:102B0000002C014000100240000C01400008014070
:102B100000040040704770B5044690F83C00002661
:102B20000D4601280FD0012084F83C006AB1042A28
:102B30001DD0082A2FD00C2A3FD00126002084F86F
:102B40003C00304670BD022070BD206801F0F2F8F4
:102B50002068816941F0080181612068816921F064
:102B600004018161206881692A69114311E02068AC
:102B700001F008F92068816941F4006181612068F1
:102B8000816921F480618161206881692A6941EA53
:102B900002218161D2E7206801F020F92068C16933
:102BA00041F00801C1612068C16921F00401C161DF
:102BB0002068C1692A69114311E0206801F03AF9DF
:102BC0002068C16941F40061C1612068C16921F4D4
:102BD0008061C1612068C1692A6941EA0221C1613D
:102BE000ACE710B5040003D094F83D0010B107E045
:102BF000012010BD002084F83C00204600F01EF8A3
:102C0000022084F83D00211D206801F03DF80120DC
:102C100084F8460084F83E0084F83F0084F84000C1
:102C200084F8410084F8420084F8430084F84400AA
:102C300084F8450084F83D00002010BD70477047BF
:102C400070B51A4988422FD1FEF7B4FB184D4FF0EA
:102C5000E0262860B469FEF7ADFB2968884203D0FE
:102C6000FEF7A8FB2860B46970694FF47A71401CC4
:102C7000B0FBF1F0B4FBF0F0296801EB4102C2EBCC
:102C8000C111C0EBC1040021C5E90241C5E90441FD
:102C9000D5E906020E46201A61EB020102F034FA71
:102CA000C5E90801C5E9064670BD0000D80000204E
:102CB000E804002070B5044690F83C00012812D0CA
:102CC000012584F83C50022084F83D00204601F0A4
:102CD000D3F801004FF0000007D084F83D5084F88D
:102CE0003C00012070BD022070BD2168CA6822F03E
:102CF0004002CA602168CA6822F48042CA6084F82F
:102D00003D5084F83C00002070BD7047704770470C
:102D1000F8B5016804460868CA684B6910F00F0FDF
:102D20004FF0000559D003F0010602F490773743C5
:102D300065D0C10705D0D10503D5616C41F0010113
:102D40006164410705D5D90703D0616C41F00201E8
:102D50006164810705D5D90703D0616C41F0040196
:102D60006164010707D502F02001314303D0616C93
:102D700041F008016164616C00293AD0800604D5F5
:102D8000900602D5204601F03CF920684069616C4C
:102D9000C0F38010090700D460B3204601F00AF99F
:102DA00020684069400621D52068143050E8001F93
:102DB00021F0400140E80012002AF5D1E06BA8B1F3
:102DC0006D494163E06BFEF7BDF8002811D0E06B60
:102DD000416B01B0BDE8F040084783060FD593066C
:102DE0000DD52046BDE8F84001F00BB92046FFF7AD
:102DF0008EFFF8BD2046FFF78AFF6564F8BD266B9D
:102E00002023012E7CD1C6067AD5D60678D508684F
:102E10004868009048694FF00206400640D5E16BD3
:102E2000086840680004000CE8D0A28D8242E5D911
:102E3000E085886920282DD020680C3050E8001FDC
:102E400021F4807140E80012002AF5D12068143086
:102E500050E8001F21F0010140E80012002AF5D1DE
:102E60002068143050E8001F21F0400140E80012B3
:102E7000002AF5D184F84230256320680C3050E8F0
:102E8000001F21F0100140E80012002AF5D1E06B8C
:102E9000FEF734F86663A08DE18D401A81B22AE016
:102EA000A08DE18D401A81B2E08D0028A6D00029C6
:102EB000A4D022680C3252E8000F20F4907042E84F
:102EC0000007002FF5D12068143050E8002F22F0C1
:102ED000010240E80027002FF5D184F84230256335
:102EE00020680C3050E8002F22F0100240E8002348
:102EF000002BF5D166632046FFF708FFF8BDFFE71A
:102F000005062BD5150629D594F841002128F5D1C1
:102F1000A068B0F5805F01D12069B0B1206A411C82
:102F20002162216800784860E08C401E0004000C9B
:102F3000E084E3D12068C16821F08001C16020688D
:102F4000C16841F04001C160D8E7206A0088C0F341
:102F500008004860206A801C2062E5E74006CDD565
:102F60005006CBD5CA68204622F04002CA6084F8D9
:102F7000413000F0D6F8C1E7A53F000870B5040065
:102F800004D094F84100002510B106E0012070BD86
:102F900084F84050204600F023F8242084F84100B3
:102FA0002068C16821F40051C160204601F08AF810
:102FB0002068016921F4904101612068416921F094
:102FC0002A0141612068C16841F40051C160656413
:102FD000202084F8410084F842006563002070BD21
:102FE000F0B585B000240094019402940394064641
:102FF000434F0368434802220321434DBB4252D151
:10300000836943F480438361836903F480430493B9
:10301000836943F0080383618069039100F008002D
:1030200004904020CDE9000269462846FEF7C0F82A
:103030008027CDE90074694628460294FEF7B8F867
:103040003248416841F0E06141F004014160314D96
:103050002F48C5E90004C5E902472C616C61AC61E9
:103060002846EC61FEF764F808B1FDF7BEFAF56397
:103070006E622748284D143801C5102091C5264896
:1030800045F810496C61AC61EC61FEF751F808B18C
:10309000FDF7ABFAB5630022114625206E62FEF7FC
:1030A000F5F9252028E01D4EB34227D1C36943F42A
:1030B0008023C361C36903F480230493836943F0CD
:1030C000080383618069039100F0080004903015C3
:1030D000CDE9000269462846FEF76AF8F014CDE90A
:1030E0000004694628460294FEF762F80022114661
:1030F0002720FEF7CBF92720FEF7BAF905B0F0BD7F
:103100000038014000100240000C01400000014066
:103110005800024054060020980600200048004055
:1031200070477047FEE700000C4810B50A4901607F
:103130001021416000218160C1600161416101761F
:1031400041768176C17601774177FDF7B6FD00289B
:1031500001D072B6FEE710BD006400406800002098
:10316000194808B5416941F00101416140690022F7
:1031700000F00100009011460C20FEF787F90C20AA
:10318000FEF776F9002211460D20FEF77FF90D209B
:10319000FEF76EF9002211460E20FEF777F90E2099
:1031A000FEF766F9002211460F20FEF76FF90F2097
:1031B000FEF75EF9002211461020FEF767F9BDE820
:1031C00008401020FEF754B9001002402DE9F041EC
:1031D00086B00024244800940194029403948169E9
:1031E00041F010018161816901F010010491816950
:1031F00041F020018161816901F020010491816920
:1032000041F004018161816901F004010491816947
:1032100041F0080181618069144F00F008004FF40B
:1032200000550490002229463846FEF7BEF8DFF824
:103230004080002230214046FEF7B7F80095022674
:1032400001250396CDE9015469463846FDF7B0FFE4
:103250003020CDE90005CDE9024669464046FDF73C
:10326000A7FF06B0BDE8F081001002400010014049
:10327000000C014030B59BB00024149415941694B2
:1032800014210FA81794FCF7D1FF18941C2168464D
:103290001994FCF7CBFF202107A8FCF7C7FF36489D
:1032A0003449C0E900144FF6FF71C0E902410461DE
:1032B00044618461FFF76AF908B172B6FEE74FF422
:1032C000805514A92C481495FFF7A1FA08B172B6DD
:1032D000FEE72948FFF785FC08B172B6FEE7042037
:1032E0000F90102010900FA92348FFF7E3FC08B1BE
:1032F00072B6FEE7189418A91F481994FFF712F93F
:1033000008B172B6FEE76020CDE900040294039490
:10331000049405940022694617480694FFF7FBFBC6
:1033200008B172B6FEE7042269461348FFF7F3FBC3
:1033300008B172B6FEE7082269460F48FFF7EBFBBB
:1033400008B172B6FEE707940A200894CDE9094057
:103350004FF400500E94CDE90B5007A90648FEF734
:10336000CFFF08B172B6FEE70348FFF773FB1BB04F
:1033700030BD0000002C01409000002010B58AB044
:1033800000241F4804940594069407940394009421
:103390000194029408944FF080410994C0E900140C
:1033A0004FF6FF71C0E9024104618461FFF7EEF856
:1033B00008B172B6FEE74FF48050049004A910489B
:1033C000FFF725FA08B172B6FEE70C200094CDE9AC
:1033D00001400A20039069460948FEF7F3FF08B14F
:1033E00072B6FEE75020CDE9080408A90448FFF7AB
:1033F00099F8002801D072B6FEE70AB010BD0000AF
:10340000D800002010B592B000240C940D940E94B6
:10341000142107A80F94FCF709FF10941C2168469B
:103420001194FCF703FF27482549C0E900144FF623
:10343000FF71C0E9024104618461FFF7A7F808B198
:1034400072B6FEE74FF480500C900CA91D48FFF7B0
:10345000DEF908B172B6FEE71A48FFF7C2FB08B101
:1034600072B6FEE70620CDE9070407A91548FFF765
:1034700021FC08B172B6FEE7109410A9114811940E
:10348000FFF750F808B172B6FEE76020CDE90004FE
:103490000294042269460B480494FFF73CFB08B1F0
:1034A00072B6FEE7082269460648FFF734FB08B10A
:1034B00072B6FEE70348FFF7CDFA12B010BD000068
:1034C0000004004020010020FEE7FEE72DE9F84F50
:1034D000044640F68F7B48F60F794FF480684FF032
:1034E000000AC0E1B0F8441011F00F0539D030F8EF
:1034F000256031047ED530F8251001EA0B0141F03A
:10350000800120F8251005EB850004EBC00797F833
:10351000740107F5B47700286DD0F87802286BD0D5
:103520003978226832F8210048F68F73184048F243
:10353000C003184322F821003978206830F8212090
:10354000B0F8503052047DD5022202EBC1015A1866
:1035500008EB4201415A8905890D009173D03A89DF
:10356000DFE0C9062DD4018801EA090141F40041D8
:103570000180206804F12805B0F850302978022233
:1035800002EBC1015A1808EB4201405AC0F309008E
:103590006064E16B0844E06300212046FDF7A8FF6A
:1035A00094F8240000289CD0A869002899D194F8A8
:1035B0002400216840F08000A1F84C0084F824A089
:1035C00051E1018804F5B4750A0521D5B0F8502001
:1035D0002B78062101EBC3010A4408EB4201405A53
:1035E00004F52C71C0F30903EB61EA88206801F04F
:1035F00077F802E0B0E070E080E02068018801EA3E
:103600000B0141F0800101802046FEF7C8FA2AE153
:103610000904D5D5018801EA0B0141F08001018040
:103620002068B0F850202B78062101EBC3010A4432
:1036300008EB4201405A83059B0DEB6110D069698C
:1036400071B101E061E05FE0EA88206801F048F8CC
:10365000E96968690844686100212046FDF749FF6F
:10366000216808880205ABD4C0F301300328A7D035
:10367000B1F850000844B0F80C14C1F30901A0F8E7
:103680000C142A6900F20C403E2A09D95109D206CD
:1036900000D1491E02884FF4004343EA812109E02A
:1036A000B2B15108D20700D0491C02884FF6FF730F
:1036B00003EA81210A430280216808884BF68F7251
:1036C000104080F4405048F2800210430880CAE065
:1036D000018841F400410180EEE72068B0F85020F5
:1036E0003B78062101EBC3010A4408EB4201415A31
:1036F0008905890D009118D0FA8812E032463946C2
:103700002046FDF7F7FE00900FE0062202EBC10114
:103710005A1808EB4201415A8905890D009104D0DD
:103720007A897969009B00F0DBFFF8690099084409
:10373000F8617969009808447861B86918B1396905
:103740000098814204D939782046FDF7D2FE03E083
:103750003946206800F032FD30062FD505EB850094
:1037600004EBC001206830F8252002EA090242F487
:10377000004220F8252091F82B00283101281ED086
:10378000F0056CD42068B0F850300D78022202EBBE
:10379000C5021A4408EB4202805A8A69C0F3090044
:1037A000824255D9121A8A6154D04A6902444A6148
:1037B000CA691044C861206800F000FD53E0C1F8F8
:1037C00018A0087B524608B3700620D5487810B17F
:1037D000012812D03AE02068B0F8502010440A784E
:1037E00000EB0210B0F80424C2F30902A0F804248C
:1037F000B0F8042442F4004206E02068B0F85030EB
:1038000018440B7800EB0310A0F804241EE04B785A
:10381000206813B1012B11D018E0B0F850201044EB
:103820000A7800EB0210B0F80C24C2F30902A0F8E9
:103830000C24B0F80C2442F4004205E0B0F85030FB
:1038400018440B7800EB0310A0F80C24097802E070
:10385000C1F818A0E9B22046FDF74AFE03E032465F
:103860002046FDF7BAFE2068B0F8441009043FF581
:1038700039AE0020BDE8F88F0021C16101624162CC
:103880008162C16270472DE9F05F91460A460446A5
:103890004946104601F0E4FF80464146206801F0A9
:1038A000E1FE83464046216A01F072FD05464FF075
:1038B000FF31606802F0A9F8A16901F0D3FE294642
:1038C00001F0D0FEE16901F063FDE06159466069F5
:1038D00001F094FF05D25946606901F0C1FF064628
:1038E00000E000265946206901F088FE05D25946BD
:1038F000206901F0B5FF054600E000253146E0698A
:1039000001F07CFF01D2354605E02946E06901F06F
:1039100075FE00D3E569E5610121E06802F075F804
:10392000A6698246314601F033FD074650463146CE
:1039300001F096FF616A01F095FE06464846A16ACD
:1039400001F08EFF82460121A06802F05EF8514628
:1039500001F088FE314601F01BFD394601F08CFD77
:10396000064660622946584601F012FD314601F0D4
:103970000FFDE062616901F041FF01D2606907E07B
:103980002169E06A01F03AFE01D2206900E0E06AB4
:10399000C4F82080C4E90A90BDE8F09F70477047E2
:1039A0000FB4282210B5A0B022A914A8FCF70CFC73
:1039B0002C981E902D981F90282214A908A8FCF777
:1039C00003FC1E9812901F98139020220CA96846A1
:1039D000FCF7FAFB08AC94E80F00FCF72EFD14A8E6
:1039E000FCF7F2FF4FF47A7114A8FCF74FFF14A80C
:1039F000FCF77CFE044614A8FDF746F8204601F0CB
:103A00006BFB4FF06632064B01F0C4FB054A064BD8
:103A100001F0C0FB20B010BC5DF814EB01F0CAB996
:103A200066664A3F295C8FC2F5A82C400FB4282255
:103A300010B5A0B022A914A8FCF7C6FB2C981E90C4
:103A40002D981F90282214A908A8FCF7BDFB1E98EA
:103A500012901F98139020220CA96846FCF7B4FB23
:103A600008AC94E80F00FCF7AFFC14A8FCF7ACFF1F
:103A70004FF47A7114A8FCF709FF14A8FCF736FE7E
:103A8000044614A8FDF700F8204601F025FB4FF08E
:103A90006632064B01F07EFB012201F088FF20B068
:103AA00010BC5DF814EB01F085B9000066664A3F72
:103AB0000FB4282210B5A0B022A914A8FCF784FBEB
:103AC0002C981E902D981F90282214A908A8FCF766
:103AD0007BFB1E9812901F98139020220CA9684619
:103AE000FCF772FB08AC94E80F00FCF7C3FC14A8C9
:103AF000FCF76AFF4FF47A7114A8FCF7C7FE14A80C
:103B0000FCF7F4FD044614A8FCF7BEFF204601F0C4
:103B1000E3FA4FF06632064B01F03CFB054A064BD8
:103B200001F038FB20B010BC5DF814EB01F042B995
:103B300066664A3F295C8FC2F5A82C400FB4282244
:103B400010B5A0B022A914A8FCF73EFB2C981E903B
:103B50002D981F90282214A908A8FCF735FB1E9861
:103B600012901F98139020220CA96846FCF72CFB9A
:103B700008AC94E80F00FCF744FC14A8FCF724FF01
:103B8000012114A8FCF782FE14A8FCF7AFFD04463F
:103B900014A8FCF779FF204601F09EFA4FF0663238
:103BA000054B01F0F7FA012201F001FF20B010BC33
:103BB0005DF814EB01F0FEB866664A3FFDF700BC05
:103BC00030B593B028216846FCF730FB14210AA8D1
:103BD000FCF72CFB002401200F9410941194010495
:103BE00012948DE8130004904FF4E010CDE9081012
:103BF000022507956846FEF779F908B172B6FEE727
:103C00000F20CDE90A054FF48060CDE90C40022178
:103C10000AA80E94FEF78EF808B172B6FEE71220DD
:103C20000F904FF40040CDE911040FA8FEF70CF8F7
:103C3000002801D072B6FEE713B030BD7047000017
:103C40000148FEF753BE0000900000200148FEF737
:103C50004DBE0000900000200148FEF747BE000066
:103C6000900000200148FEF741BE000090000020B7
:103C70000148FEF73BBE0000D80000200148FEF7D7
:103C800035BE000020010020F0B50268164B174C2D
:103C9000174D4FF08047984205D0B84203D0A0425C
:103CA00001D0A84203D122F070064A6832439842FC
:103CB00005D0B84203D0A04201D0A84203D122F4DB
:103CC0004074CA6822434C6922F080022243026099
:103CD0008A68C2620A688262984201D109690163F6
:103CE00001214161F0BD0000002C014000040040B2
:103CF0000008004010B501F01F030121046A99403B
:103D00008C430462016A9A401143016210BD10B5F0
:103D1000846842EA032224F47F440A4322438260F7
:103D200010BD826822F070020A4342F007018160F0
:103D30007047000030B5036A026A22F00102026295
:103D40004268846924F073050C682C4323F0020553
:103D50008B682B430A4DA8420BD123F00805CB6892
:103D600022F440722B434D6923F0040315438A6902
:103D70002A434260846149684163036230BD0000A8
:103D8000002C014030B5026A036A23F0100303627D
:103D9000436884690D6824F4E64444EA05248D6888
:103DA00022F0200242EA05120B4DA8420ED1CD6846
:103DB00022F0800242EA05124D6923F4406343EA8F
:103DC00085038D6922F0400243EA850343608461E4
:103DD00049688163026230BD002C014030B5036A3E
:103DE000026A22F4807202624268C46923F400739A
:103DF00024F073050C682C438D6843EA05230C4DB1
:103E0000A8420ED1CD6823F4006343EA05234D692F
:103E100022F4405242EA05128D6923F4806342EA9B
:103E200005124260C4614968C163036230BD00008D
:103E3000002C014030B5046A026A22F4805202620A
:103E40004268C3690D6823F4E64343EA05238D689D
:103E500024F4005444EA0534064DA84204D14D69C7
:103E600022F4804242EA85124260C36149680164DB
:103E7000046230BD002C014070B5036800249A68CC
:103E800022F070054A682A4322F007050A682A438F
:103E90009A604A6812F00F0F31D11211082A2ED2FF
:103EA000DFE802F02E2E2E2E0B2127040B69D1E91C
:103EB00002210068FFF72BFF22E00A68052A10D0D4
:103EC0000268136A156A25F0010515620268956992
:103ED000096925F0F00545EA011191610068036266
:103EE0000EE0012070BD0A698968006800F00AF8D8
:103EF00006E00A698968006800F042F800E00124E1
:103F0000204670BD10B5036A046A24F001040462FF
:103F1000846924F0F00444EA021423F00A020A43FC
:103F20008461026210BD000070B5056A046A24F065
:103F30000104046284690F4EB04208D0B0F1804F92
:103F400005D00D4EB04202D00C4EB04203D124F049
:103F50000304144301E044F001041A0724F0F004C0
:103F600044EA126225F00A0301F00A011943826152
:103F7000016270BD002C01400004004000080040B8
:103F800010B5036A046A24F010040462846923F003
:103F9000A00324F4704444EA023243EA011182612E
:103FA000016210BD10B5406A0021C185C184FEF7D1
:103FB000AEFE10BD01680C3151E8002F22F4907262
:103FC00041E80023002BF5D10168143151E8002F9E
:103FD00022F0010241E80023002BF5D1016B0129F9
:103FE00009D101680C3151E8002F22F0100241E89C
:103FF0000023002BF5D1202180F84210002101631D
:10400000704708B590F84210222901D0022008BD5F
:1040100082684FF480539A4201D1016921B1816ACB
:104020009A421BD04AB10AE00268816A5268C2F320
:1040300008020A80816A891C08E0026972B102687C
:10404000526802F07F020A70816A491C8162C18D48
:10405000491E0904090CC18503D01BE0026852689F
:10406000F1E70168CA6822F02002CA600168CA68E4
:1040700022F48072CA6001684A6922F001024A6132
:10408000202180F8421000214163026B012A03D0F5
:10409000FFF746F8002008BD016301680C3151E8C4
:1040A000002F22F0100241E80023002BF5D1016817
:1040B0000A68D20602D50A6849680091818DFEF728
:1040C00025FEE7E770B5044600680169E26821F45F
:1040D0004051114301612169A068084361690843A7
:1040E0002168CA6841F20C639A430243CA6020689F
:1040F0004169A26921F44071114341611E49206860
:10410000884202D1FDF7BCFE01E0FDF7A9FE00EBFD
:10411000C00101EB0012606864218000B2FBF0F383
:10412000B3FBF1F36FF018067343B2FBF0F5B2FB8B
:10413000F0F605EB8305322303EB0515B5FBF1F52E
:10414000B6FBF1F605F0F00505EB0615B2FBF0F64F
:10415000B2FBF0F0B0FBF1F06FF01802504306EB49
:10416000800003EB0010B0FBF1F0216800F00F00BD
:104170002844886070BD0000003801400148FEF707
:10418000C7BD0000680100200148FEF7C1BD000066
:10419000B00100200020704700207047012120F866
:1041A000401F00210180818001820846704730F85D
:1041B000401F21F43F410180002070472DE9F04766
:1041C0000D464B78097B04464FF0000948F68F7284
:1041D00048F2800A4FF400474FF6FF78012B09D0D0
:1041E00000296FD0E87802286DD001286CD001201A
:1041F000BDE8F087AE692869864200D9064691B1CC
:10420000E97802291ED0286A801B2862287834F8B1
:1042100020104906B4F85010214401EB001073D56A
:10422000A0F80C6416E1B3B2EA882046696900F090
:1042300075FAB4F850002978204400EB0110A0F87A
:1042400004640DE1296A814277D9297834F8210084
:10425000104048F28012104324F82100286A801B85
:104260002862287834F820104906697871D511B190
:1042700001292AD030E0B4F85010214401EB00109D
:10428000B0F80C14C1F30901A0F80C1400F20C40B2
:104290003E2E07D97109F20600D1491E028847EA6D
:1042A000812107E04EB17108F20700D0491C028855
:1042B00008EA81210A4302800EE0018841F40041AE
:1042C000018009E0F1E020E195E1B4F850201119F6
:1042D00001EB0010A0F80C646A89B3B2204669694A
:1042E00000F01CFA6869304468612969286A8842CC
:1042F00002D9801B286202E00646C5F82090687843
:1043000018B101282BD032E02FE0B4F85000297802
:10431000204400EB0110B0F80414C1F30901A0F827
:10432000041400F204403E2E08D97109F20600D1AF
:10433000491E028847EA812108E0A1E056B17108D0
:10434000F20700D0491C028808EA81210A43028052
:104350000DE00EE0018841F40041018007E0B4F86F
:1043600050002978204400EB0110A0F804642A8949
:1043700071E011B1012927D02DE0B4F8501021448B
:1043800001EB0010B0F80414C1F30901A0F8041403
:1043900000F204403E2E07D97109F20600D1491EF1
:1043A000028847EA812107E04EB17108F20700D088
:1043B000491C028808EA81210A4302800BE0018837
:1043C00041F40041018006E0B4F85010214401EBB3
:1043D0000010A0F804642A89B3B22046696900F08D
:1043E0009DF96869304468612969286A884202D960
:1043F000801B286202E00646C5F82090687810B15C
:10440000012836D026E0B4F850002978204400EB8B
:104410000110B0F80C14C1F30901A0F80C1400F25B
:104420000C403E2E07D97109F20600D1491E0288C0
:1044300047EA812107E04EB17108F20700D0491C1C
:10444000028808EA81210A43028003E0018841F4DE
:10445000004101806A89B3B22046696900F05EF9C3
:10446000297834F8210048F6BF72104080F03000FF
:104470000FE1B4F850100819297800EB0110CFE6CD
:104480002A7834F8220048F68F63184040EA0A0080
:1044900024F82200B4F850002A78204400EB0210DF
:1044A0008BB2A0F804342A89D6E7A9692869814229
:1044B00002D9091AA96102E00846C5F81890B4F8B3
:1044C00050102A78214401EB0211B1F80C24C2F3F8
:1044D0000902A1F80C2401F20C413E287DD94209C1
:1044E000C00600D1521E088847EA82220AE00888E6
:1044F00040F4004007E04208C00700D0521C088882
:1045000008EA822210430880BBE033BBB4F85000B5
:104510002978204400EB0110B0F80414C1F309011C
:10452000A0F80414296900F204403E2907D94B0978
:10453000C90600D15B1E018847EA832307E041B129
:104540004B08C90700D05B1C018808EA8323194384
:1045500002E0018841F400410180687810B101282F
:1045600028D030E0B4F850002978204400EB011046
:10457000B0F80C14C1F30901A0F80C14296900F279
:104580000C403E2907D94B09C90600D15B1E0188A2
:1045900047EA832307E041B14B08C90700D05B1C01
:1045A000018808EA8323194302E0018841F40041AD
:1045B000018008E0B4F850100819297800EB0110C8
:1045C000298AA0F80C14E869C0B3297834F82100CE
:1045D000430401D5430605D400E046E044F240031D
:1045E00018424ED134F82100104048F2C002104366
:1045F00024F8210045E0A9692869814202D9091AF5
:10460000A96102E00846C5F8189013BBB4F8501031
:104610002A78214401EB0211B1F80424C2F3090203
:10462000A1F8042401F204413E2808D94209C30636
:1046300000D1521E0B8847EA822208E021E078B1BF
:104640004208C30700D0521C0B8808EA8222134399
:104650000B80697800293FF42EAF012909D010E0C2
:104660000A8842F400420A80F3E700287FF443AF4F
:104670003DE7B4F8502011192A7801EB0211A1F896
:104680000C04297834F821004BF68F72104080F426
:10469000405040EA0A0024F821000020A8E500006C
:1046A00010B50448FCF70BFABDE810400248FDF7CE
:1046B00031B9000068000020F801002010B504485E
:1046C000FCF7FDF9BDE810400248FDF723B90000F2
:1046D00068000020F8010020B0F844007047000096
:1046E00010B500EB42005C0800F5806009D000BF07
:1046F00030F8042B01F8012B120A01F8012B641E7B
:10470000F6D1DA0701D00088087010BD002070478C
:1047100011B98021A0F84C100020704710B55B1C27
:1047200000EB42005B0800F5806009D011F8012B16
:1047300011F8014B42EA042220F8042B5B1EF5D14C
:1047400010BDFEE70907090E002804DB00F1E02098
:1047500080F80014704700F00F0000F1E02080F8AE
:10476000141D7047012210210148FCF71EBE0000F5
:10477000000801400448102101600021416081606F
:1047800001460248FCF714BDDC0600200008014089
:10479000EEB0FCF71DFEFFF713FAFEF717FDFEF76C
:1047A000DFFCFEF7EBFDFF48FD494FF4E136002545
:1047B0000160C0E901650C24C560C0E9045485614D
:1047C000C561FEF7DBFB08B172B6FEE7FEF752FDEE
:1047D000FEF7AAFCF348F44948300160C0E90165DE
:1047E000C560C0E904548561C561FEF7C7FB08B127
:1047F00072B6FEE7EE4EED48012730608015B060DE
:104800003773357537614FF460207560F06130465D
:10481000FBF770FF08B172B6FEE7FEF7F3FDE6495D
:10482000E44808600846FCF743FB08B172B6FEE7AF
:10483000DC48E24990300160082141608561C56132
:10484000022105628160FDF7FFF808B172B6FEE74C
:1048500000F048FAD3493D22483955A8FBF7B4FC8B
:10486000D04C483C94F83D008DF8910194F83E00FE
:104870008DF8920194F83F008DF8930194F8400070
:104880008DF8940194F841008DF8950194F8420058
:104890008DF8960194F843008DF8970194F8440040
:1048A0008DF8980194F845008DF8990194F8460028
:1048B0008DF89A01FF2104F58768CDE90E15CDE941
:1048C0001058382259A96846FBF77EFC0DF5AA7CE2
:1048D0009CE80F0000F032FAA4F14800FDF7DCFD7F
:1048E000A4F14800FDF754FF04221021A4F1900028
:1048F000FDF730FDA4F19000FDF74AFF04F581605B
:10490000FEF7BAFFAE480760001D0560AC4A4FF4E1
:1049100060612C321160AA4A4FF494613432116004
:10492000121D1160121D1160A5494FF4204244313F
:104930000A600A684AF210031A430A60016841F0EB
:104940000501016000074FF6FF718162C162876354
:1049500059A86D905FA86C906B906A90699059A867
:10496000DFF860B204F5727904F57C774FF0050A40
:1049700068906790D9E9080100225B4600F00AFCC4
:104980000022914B00F050FA02460B4600208F495E
:1049900000F04AFA00F00EFA786102468C48396954
:1049A000FEF771FFFCF706FD83491C3948614FF49F
:1049B00000518848FCF7F1FC0120FCF7E7FBD9E93E
:1049C000080100225B4600F0E5FB00227E4B00F070
:1049D0002BFA02460B4600207C4900F025FA00F035
:1049E000E9F9786102467A483969FEF74CFF6D496A
:1049F0003D22483955A8FBF7E7FB14F83D0F8DF829
:104A0000910160788DF89201A0788DF89301E0789B
:104A10008DF8940120798DF8950160798DF89601D3
:104A2000A0798DF89701E0798DF89801207A8DF8BA
:104A30009901607A8DF89A01CDE90EA5CDE910585B
:104A4000382268466D99FBF7BFFB0DF5AA7C9CE800
:104A50000F0000F073F9282255495BA8FBF7B4FB5F
:104A6000B06A6590F06A6690202268466C99FBF700
:104A7000ABFB0DF5B67C9CE80F00FFF75FF8B86064
:104A800028224B495BA8FBF79FFBB06A6590F06A50
:104A90006690202268466B99FBF796FB0DF5B67C75
:104AA0009CE80F00FEF77CFF3860282240495BA895
:104AB000FBF78AFBB06A6590F06A66902022684630
:104AC0006A99FBF781FB0DF5B67C9CE80F00FEF7B9
:104AD000ADFFF860282236495BA8FBF775FBB06A8A
:104AE0006590F06A6690202268466999FBF76CFB36
:104AF0000DF5B67C9CE80F00FEF7DAFF78604FF406
:104B000000513448FCF749FC0120FCF73FFBD9E990
:104B1000080100225B4600F03DFB00222A4B00F01A
:104B200083F902460B460020284900F07DF900F089
:104B300041F97861024626483969FEF7A4FE194911
:104B40003D22483955A8FBF73FFB20788DF89101AD
:104B500060788DF89201A0788DF89301E0788DF857
:104B6000940120798DF8950160798DF89601A079EE
:104B70008DF89701E0798DF89801207A8DF89901E8
:104B8000607A8DF89A01CDE90E5ACDE91058382295
:104B900068466899FBF718FB0DF5AA7C1CE000003D
:104BA0000038014068010020004800400024014016
:104BB00038000020003002401C000020005C004053
:104BC000002C01400080564080842E4100004E4061
:104BD00028050020001001409CE80F0000F0AEF80E
:104BE0004FF400511D48FCF7D8FB0120FCF7CEFA2A
:104BF0003D221B4955A8FBF7E7FA20788DF8910173
:104C000060788DF89201A0788DF89301E0788DF8A6
:104C1000940120798DF8950160798DF89601A0793D
:104C20008DF89701E0798DF89801207A8DF8990137
:104C3000607A8DF89A01CDF844800E95CDE90F5A2F
:104C4000382268463D3C6799FBF7BEFA0DF5AA7C11
:104C50009CE80F0000F072F88CE6000000100140A4
:104C6000200100201348416841F40061416041681F
:104C700021F4806141601048016841F40011016035
:104C8000016821F480110160016841F400010160B4
:104C9000016821F48001016008495A200860074931
:104CA00000200C31086005480C38016841F0100103
:104CB0000160704700000140000C01402C040040DE
:104CC000064810210160012141600021816002211C
:104CD000C16001460248FCF76BBA0000DC06002008
:104CE0000008014010B5002210210848FCF75DFBC8
:104CF000FFF740FD00F00CF8012805D1FFF7E0FFB9
:104D0000BDE81040FFF72EBD10BD000000080140B7
:104D100010B5094C10212046FCF73AFB012809D1B7
:104D20004FF47A70FCF732FA2046BDE810401021AB
:104D3000FCF72EBB10BD0000000801400FB470B599
:104D4000DDE91832DDE91654FFF78CFF280440EA4C
:104D500004211943182001253C261E2405FA00F3DE
:104D60000B4202D022F8106001E022F81040401EF1
:104D7000F4D50F48016841F0010101600C490C4B6A
:104D800019203831243305E002EB400434F8044C98
:104D90000C60401E1C68142CF6D30128FADA00209F
:104DA000086004A8FDF720FD70BC5DF814FB00004E
:104DB0000004004021F00042A2F16052B2F5801FD1
:104DC00001F0004328BFD2F17F6C0BD95FEA001CD1
:104DD00043EAC20242EB507018BF704728BF20F070
:104DE00001007047B2F5801FBCBF184670474FEAFC
:104DF000410C1CF5001F02D2084600F0FABC70B549
:104E000000F072FA00000089FFF7F6BF4FF0004093
:104E1000A0F580007047000002494FF0000000F04C
:104E200094BD00BF0000F87F2DE9C04130B4DFF829
:104E3000A0C23CEA111418BF3CEA131400F0EC8045
:104E400081EA03051CEA111444EAD57418BF1CEA70
:104E5000131500F0C780A4EB05044FF0004545EAA8
:104E6000C12145EAC32341EA505143EA525304F1B8
:104E70007F74994204F500344FEAC0204FEAC22201
:104E800008BF904200F09C804FEA13650FF2401675
:104E9000765D4FEA134506FB05F7C7F1807706FB01
:104EA00007F74FEAD737A7FB03687642C8F5803883
:104EB000A7FB06CE38BFA8F1010807FB08E64FF0B4
:104EC000000EA6FB028CE6FB03CEDCF1000CCEF15B
:104ED000004E38BFAEF1010EA6FB0C584FF0000794
:104EE0004FF00005E6FB0E87A1FB08C6A0FB07CE2E
:104EF00016EB0E0645F10005E1FB076515F1E04EE6
:104F00007EBFA4F580345FEA46066D4116F1800746
:104F100045F100054FEA17274FEA066647EA05679D
:104F2000A6F1DE46B6F1805F4FEA15251FD9384657
:104F300024F0010C05EBC471BCF1FE6F01EB0C1108
:104F400002D8F0BCBDE8008124425CBF01F5801EA0
:104F50009EEAC47F02D4F0BCBDE80081244238D46C
:104F6000F0BCA1F1C041BDE8004100F00BBA4FEA2E
:104F7000D22242EA43524FEAD323A7FB02864FEAEA
:104F8000D02040EA415007FB03661EEA0E0F4FEAAD
:104F9000D12105FB026658BFA6EB0056B6EB0056C2
:104FA0004FEA520E4EEAC37E18EB0E0E56EB530E2E
:104FB000BDD518EB02085E417F1C55F10005B6E730
:104FC0004FF480154FF000074FF000064FF0000837
:104FD000ADE7F0BC4FF0000001F1C04101F000412D
:104FE000BDE8008111EA0C1F0CEA131500D00CE09B
:104FF00013EA0C1F00F025804FF00000F0BC81EA9E
:10500000030101F00041BDE80081F0BCBDE80041B2
:1050100081EA030100F0B6B9F0BCBDE8004170B50B
:1050200000F062F9097EFC3E00F007B881EA030156
:105030004FF0000001F00041704781EA030100F0E9
:10504000A1B9F0BCBDE800414FF000002149704714
:10505000FFFDFBF9F7F5F4F2F0EEEDEBE9E8E6E43D
:10506000E3E1E0DEDDDBDAD8D7D5D4D3D1D0CFCDC4
:10507000CCCBCAC8C7C6C5C4C2C1C0BFBEBDBCBBFD
:10508000BAB9B8B7B6B5B4B3B2B1B0AFAEADACABF8
:10509000AAA9A8A8A7A6A5A4A3A3A2A1A09F9F9ED2
:1050A0009D9C9C9B9A999998979796959594939384
:1050B000929191908F8F8E8E8D8C8C8B8B8A89891B
:1050C000888887878685858484838382828181809E
:1050D0000000FF070000F87F10F0004248BF404288
:1050E000B0FA80F310FA03F10AD0C3F11D0303F5FF
:1050F00080634FEA415002EB035202EBD12170472B
:105100004FF0000070470000B1FA81F30B3B20D351
:10511000994010D1B0FA80F310FA03F108BF70473C
:10512000C3F11D0303F580634FEAD1224FEA4150DA
:1051300002EB03517047C3F1200C20FA0CFC98409D
:10514000C3F1320303F5806341EA0C0101EB035123
:10515000704710B5C3F10004C3F1320CC4F1200E46
:105160000CF5806201FA0EFC21FA04F100FA0EF34C
:10517000E040BDE8104040EA0C0001EB025138BFAE
:105180007047401C41F100015B0008BF20F00100A6
:1051900070470000DFF848C170B51CEA111E1EBF41
:1051A0001CEA13159EEA0C0F95EA0C0F00F06F80B5
:1051B00081EA030423EA4C134EEAD47E21EA4C111F
:1051C00041F4801143F48013AE44A1FB024CA0FBD8
:1051D0000365AEF17F7E361955EB0C05A1FB034C40
:1051E0004CF10003A0FB021C16EB0C06654153F1C9
:1051F0000003094218BF46F0010613F4007F0BD1EB
:105200004FEA03314FEA0530340341EA155140EAD1
:1052100016506FF003020AE04FEAC3214FEAC5209F
:10522000F40241EA555140EA56506FF0020202EB97
:105230002E4201EB025585EACE710AD05FEA440C9A
:1052400018BF24F0004450F1000041F1000120EAB1
:10525000D47040F2FE7C624500D270BDA84214BFFB
:105260004FF080444FF04044002E08BF0024BEF1B0
:10527000806FA8BFA1F1C041BDE8704080F282807C
:105280004FF0000001F1C04101F0004170479EEA7B
:105290000C0F0CEA131518BF95EA0C0F06D04FF04F
:1052A000000081EA030E0EF0004170BD00F01CF812
:1052B0008900013E00F007B800F009B84FEA430C3E
:1052C0005FEA5C5C08D081EA030100F05BB84FEA5A
:1052D000410C5FEA5C5CF6D14FF000000149704779
:1052E0000000FF070000F87F0EF1020E2EF0030E03
:1052F0005EF8046B364205D4012A43EB030515F52D
:10530000001F12D8012841EB010C1CF5001F0CD81E
:105310000ED14FEAD17C15F5001F0CEB4C0C0CF1B3
:10532000020C08BF4CEBD37C04E04FF0080C01E00A
:105330004FEAD37C0CEB4C0526FA05F606F007067F
:10534000B6F1040C06D20EEB860CBDE870404CF0B2
:10535000010C6047DFE80CF0090B02024FF000413E
:105360004FF00000A1F5002170BD1946104601283C
:1053700051EB010418BFD4F5001484BF002001F0E4
:10538000004170BD0808A0F500114FEA31017047D7
:1053900090EA010F48BF81F0004100F16882421A93
:1053A0003CBF801A89184FEAD0524FF07F4C1CEA5C
:1053B000410FA2EBD15318BF9CEA026F00F03B8073
:1053C0004FF0004C4CEA00204CEA012121FA03FC8A
:1053D00010EB0C0C1ED202F1FF325FEA1C2040EBF6
:1053E000C25038BF70471CF07F0F4FEA400C18BF07
:1053F000BCF17F4F38BF7047C3F12003994008BF0D
:1054000020F00100BCF17F4F38BF7047A0F1C040D1
:1054100000F0EFB94FEA3C00000A40EBC25028BF51
:105420001CF0FF0F4FEA400CE6D018BFBCF17F4FD5
:1054300038BF7047EAE79CEA026F05D010EA5C0FBC
:1054400008BF00F00040704710B500F08CF900BFB5
:1054500064FBBE3E014800F078BA00BF0000C07F88
:10546000401058BFC0F14040491058BFC1F1404101
:105470008142EFF3008070474FF47F0C1CEAD0129A
:105480001EBF1CEAD11392EA0C0F93EA0C0F00F036
:10549000858090EA010F48BF42F4807240F4000C0E
:1054A00041F400002CF07F4120F07F4000B58142A4
:1054B000A2EB03020FF2081CACEB504EC0F100004F
:1054C0009EF800E04FEA4E0E00FB0EFC38BF49008C
:1054D0004FEA2C1C02F5FA020CFB0EF34FEACE1E2B
:1054E0004FEA112C4FEAC1210EEB635E42EB2242E0
:1054F0000EFB0CFC4FEA1C5300FB03114FEA112C6E
:105500004FEA01310EFB0CFC4FEADC4C00FB0C11A6
:10551000C14228BF09184CEB03335DF804EB10EBD4
:10552000410143EBC250B2F57C0F38BF704729D51B
:1055300012F0F00F1CBF00F1C04000F000407047B7
:10554000008182838485868788898B8C8D8E8F915C
:105550009293959697999A9C9D9FA0A2A3A5A7A880
:10556000AAACAEB0B2B3B5B7B9BCBEC0C2C5C7C9AC
:10557000CCCED1D4D7D9DCDFE2E6E9ECF0F3F7FA10
:10558000FE0000004FEA400C0CF1807CBCF17E4F25
:1055900028BF7047B0F1C04000F02BB990EA010F6E
:1055A0000CEAD11348BF42F48072624538BF6345AC
:1055B00007D213F47F0F16D080EA010000F00040FC
:1055C000704710B500F0CFF8097EFC3E00F005B83A
:1055D00080EA010000F00040704780EA010000F01E
:1055E000004000F006B912F47F0F04BF0248704774
:1055F00080EA010000F0FDB80000C07F50EA010C15
:1056000000F113801CF5000F58BFBCF5000F01D44A
:105610008842704707D710F5000F58BF11F5000FEB
:1056200015D488427047894270471CF5000F04D595
:10563000BCF5000FF7D5814270474FF0807C1CEB22
:10564000400F38BF1CEB410F01D28142704710B5AB
:1056500000F089F8922449004FF000504FF080513B
:10566000FFF7FEBE4FF47F0C1CEAD0121EBF1CEAEF
:10567000D11392EA0C0F93EA0C0F00F0478090EAE6
:10568000010F48BF42F480724FF0004C4CEA0020FA
:105690004CEA012102EB0302A0FB0113A2F5000278
:1056A000002918BF43F001035B0028BF4FEA330312
:1056B00042EB22425FEA132C4CEBC2502EBFBCEBF4
:1056C000436FB2F57C0F70474FEA036CBCF1004F9B
:1056D00008BF20F00100B2F57C0F38BF70470BD532
:1056E00082F0FF0212F5803FC8BF704700F1C04052
:1056F000D8BF00F00040704700F5000C5FEA4C0C8A
:1057000048BF7047B0F1C04000F073B890EA010F95
:105710000CEAD11348BF42F48072624538BF63453A
:1057200004D280EA010000F00040704710B500F09C
:105730001AF800BF8900013E00F007B800F009B870
:105740005FEA410C5FEA1C6C08D080EA010000F0BF
:1057500050B85FEA400C5FEA1C6CF6D14FF0004095
:10576000A0F5800070470EF1020E2EF0030E5EF8D9
:10577000044B244204D44FEA4102B2F17F4F11D8C6
:105780004FEA4003B3F17F4F0CD80ED14FEAD07CE3
:10579000B2F17F4F0CEB4C0C0CF1020C08BF4CEB40
:1057A000D17C04E04FF0080C01E04FEAD17C0CEB17
:1057B0004C0324FA03F404F00704B4F1040C06D2F9
:1057C0000EEB840CBDE810404CF0010C6047DFE8A4
:1057D0000CF0070802024FF00040A0F5800010BD59
:1057E0000846420018BFD2F1807288BF00F0004026
:1057F00010BDFF2141EAD050C005704751EA000CAE
:1058000000F113801CF5000F58BFBCF5000F01D448
:105810008142704707D711F5000F58BF10F5000FF0
:1058200015D481427047894270471CF5000F04D59A
:10583000BCF5000FF7D5884270474FF0807C1CEB19
:10584000410F38BF1CEB400F01D28842704780EAFD
:10585000010081EA000180EA0100FFF7F8BE0000C4
:1058600090EA010F48BF81F000413FF598AD421A20
:1058700004D882F00042A0EB020011444FEAD0525B
:105880004FF07F4C1CEA410FA2EBD15318BF9CEAAA
:10589000026F4AD04FF0004C4CEA00204CEA012144
:1058A00021FA03FCB0EB0C0C0FD412F0FE0F36D033
:1058B0005FEA4C001DD5001240EBC25038BF704764
:1058C0001CF03F0F18BF70470BE0A2F101025FEA26
:1058D0001C2040EBC25038BF70471CF07F0F18BF30
:1058E0007047C3F12003994014BF401E20F001000F
:1058F000704780084FEA122308BF7047B0FA80FC57
:10590000A2EB0C02CCF1280C60FA0CF093EA122FF7
:1059100004BF00EBC25070474FEAC3707047130AD0
:105920005FEADC1008BF7047F6E79CEA026F04D01C
:1059300010EA5C0F08BF0020704710B5FFF713FF97
:1059400040DFF63E81F0004070470CF00F03092B5A
:1059500008BF082000F07F800A2B0BD0082B18BF4F
:10596000704708BF1CF0400F0AD04FF000004FF006
:10597000000170471CF0400F18BF4FF00040704707
:105980001CF0100F08D020F0704300F07F4242EA74
:10599000D3014FEA4370704700F0604021F07F422E
:1059A00042EA000201F07F4040EA727070474FF017
:1059B000FF0C4CF4E06C1CEA11531CBF9CEA030C76
:1059C0009445C2BFDA4201EB02517047002B0DD063
:1059D000BCF1000F0FD0002A01F00041A4BF41F03C
:1059E000E04141F07F614FF00000704701F000415D
:1059F0004FF00000704750EA01334FF09B0C18BF86
:105A00004CF0806C7FF408AA70474FF0FF0212EA56
:105A1000D0521CBF92F0FF038B42C2BFD14200EBB9
:105A2000C1507047002A0AD0002B0BD0002900F08B
:105A30000040A4BF40F0FE4040F40000704700F07A
:105A40000040704743024FF00B0C18BF4CF0806CC5
:105A50007FF400AD70471CF4801F11D01CF4E02FC0
:105A600003D06FEACC31490070474FF04050EFF35C
:105A7000008222F0704242EA000282F300887047FE
:105A80004FF000007047000000000000010000001F
:105A900002000000030000000400000005000000F8
:105AA00006000000000000000102020304050607D2
:105AB00008090A0B0C0D0E0F101001020203040559
:105AC000060708090A0B0C0D0E0F1010000000004D
:105AD000000000000102030406070809000000009E
